{
  "contractName": "Sum",
  "abi": [
    {
      "inputs": [],
      "payable": false,
      "stateMutability": "nonpayable",
      "type": "constructor"
    },
    {
      "constant": true,
      "inputs": [],
      "name": "getNum",
      "outputs": [
        {
          "internalType": "uint256",
          "name": "",
          "type": "uint256"
        }
      ],
      "payable": false,
      "stateMutability": "view",
      "type": "function"
    },
    {
      "constant": true,
      "inputs": [
        {
          "internalType": "uint256",
          "name": "num1",
          "type": "uint256"
        },
        {
          "internalType": "uint256",
          "name": "num2",
          "type": "uint256"
        }
      ],
      "name": "sum",
      "outputs": [
        {
          "internalType": "uint256",
          "name": "",
          "type": "uint256"
        }
      ],
      "payable": false,
      "stateMutability": "pure",
      "type": "function"
    }
  ],
  "bytecode": "0x608060405234801561001057600080fd5b506000808190555060e7806100266000396000f3fe6080604052348015600f57600080fd5b506004361060325760003560e01c806367e0badb146037578063cad0899b146053575b600080fd5b603d609c565b6040518082815260200191505060405180910390f35b608660048036036040811015606757600080fd5b81019080803590602001909291908035906020019092919050505060a5565b6040518082815260200191505060405180910390f35b60008054905090565b600081830190509291505056fea265627a7a723158203987ccffb72a8112110c8c660fe45afe234c12f55f9366103fe93cb7f49ef29464736f6c63430005100032",
  "source": "pragma solidity 0.5.16;\r\n\r\ncontract Sum{\r\n    uint private num;\r\n\r\n    constructor() public{\r\n        num = 0;\r\n    }\r\n\r\n    function getNum() public view returns(uint){\r\n        return num;\r\n    }\r\n\r\n    function sum(uint num1, uint num2) public pure returns(uint){\r\n        return num1 + num2;\r\n    }\r\n}",
  "sourcePath": "C:\\Users\\Hadi\\Solidity\\Dapp\\Sum\\sum-contract\\contracts\\Sum.sol",
  "compiler": {
    "name": "solc",
    "version": "0.5.16+commit.9c3226ce.Emscripten.clang"
  },
  "schemaVersion": "3.4.4",
  "updatedAt": "2022-07-13T11:03:23.625Z",
  "networkType": "ethereum",
  "devdoc": {
    "methods": {}
  },
  "userdoc": {
    "methods": {}
  }
}