{
  "contractName": "Coin",
  "abi": [
    {
      "inputs": [],
      "stateMutability": "nonpayable",
      "type": "constructor"
    },
    {
      "anonymous": false,
      "inputs": [
        {
          "indexed": false,
          "internalType": "uint256",
          "name": "_amount",
          "type": "uint256"
        },
        {
          "indexed": false,
          "internalType": "string",
          "name": "message",
          "type": "string"
        },
        {
          "indexed": false,
          "internalType": "address",
          "name": "_To",
          "type": "address"
        }
      ],
      "name": "sendMessage",
      "type": "event"
    },
    {
      "inputs": [
        {
          "internalType": "address",
          "name": "_To",
          "type": "address"
        },
        {
          "internalType": "uint256",
          "name": "_amount",
          "type": "uint256"
        }
      ],
      "name": "mint",
      "outputs": [],
      "stateMutability": "nonpayable",
      "type": "function"
    },
    {
      "inputs": [],
      "name": "getBalance",
      "outputs": [
        {
          "internalType": "uint256",
          "name": "",
          "type": "uint256"
        }
      ],
      "stateMutability": "view",
      "type": "function",
      "constant": true
    },
    {
      "inputs": [
        {
          "internalType": "address",
          "name": "_To",
          "type": "address"
        },
        {
          "internalType": "uint256",
          "name": "_amount",
          "type": "uint256"
        }
      ],
      "name": "transfer",
      "outputs": [],
      "stateMutability": "nonpayable",
      "type": "function"
    }
  ],
  "bytecode": "0x608060405234801561001057600080fd5b50336000806101000a81548173ffffffffffffffffffffffffffffffffffffffff021916908373ffffffffffffffffffffffffffffffffffffffff1602179055506106af806100606000396000f3fe608060405234801561001057600080fd5b50600436106100415760003560e01c806312065fe01461004657806340c10f1914610064578063a9059cbb14610080575b600080fd5b61004e61009c565b60405161005b9190610356565b60405180910390f35b61007e60048036038101906100799190610400565b6100e8565b005b61009a60048036038101906100959190610400565b6101d0565b005b600080600160003373ffffffffffffffffffffffffffffffffffffffff1673ffffffffffffffffffffffffffffffffffffffff1681526020019081526020016000205490508091505090565b60008054906101000a900473ffffffffffffffffffffffffffffffffffffffff1673ffffffffffffffffffffffffffffffffffffffff163373ffffffffffffffffffffffffffffffffffffffff1614610176576040517f08c379a000000000000000000000000000000000000000000000000000000000815260040161016d9061049d565b60405180910390fd5b80600160008473ffffffffffffffffffffffffffffffffffffffff1673ffffffffffffffffffffffffffffffffffffffff16815260200190815260200160002060008282546101c591906104ec565b925050819055505050565b8080600160003373ffffffffffffffffffffffffffffffffffffffff1673ffffffffffffffffffffffffffffffffffffffff168152602001908152602001600020541015610253576040517f08c379a000000000000000000000000000000000000000000000000000000000815260040161024a9061058e565b60405180910390fd5b81600160003373ffffffffffffffffffffffffffffffffffffffff1673ffffffffffffffffffffffffffffffffffffffff16815260200190815260200160002060008282546102a291906105ae565b9250508190555081600160008573ffffffffffffffffffffffffffffffffffffffff1673ffffffffffffffffffffffffffffffffffffffff16815260200190815260200160002060008282546102f891906104ec565b925050819055507f3a4daa66121f2f4bfd596dc4b2bb467122b633029f9e05fb1cddb046b250702f828460405161033092919061063d565b60405180910390a1505050565b6000819050919050565b6103508161033d565b82525050565b600060208201905061036b6000830184610347565b92915050565b600080fd5b600073ffffffffffffffffffffffffffffffffffffffff82169050919050565b60006103a182610376565b9050919050565b6103b181610396565b81146103bc57600080fd5b50565b6000813590506103ce816103a8565b92915050565b6103dd8161033d565b81146103e857600080fd5b50565b6000813590506103fa816103d4565b92915050565b6000806040838503121561041757610416610371565b5b6000610425858286016103bf565b9250506020610436858286016103eb565b9150509250929050565b600082825260208201905092915050565b7f6f6e6c79206d696e7465722063616e206d696e74000000000000000000000000600082015250565b6000610487601483610440565b915061049282610451565b602082019050919050565b600060208201905081810360008301526104b68161047a565b9050919050565b7f4e487b7100000000000000000000000000000000000000000000000000000000600052601160045260246000fd5b60006104f78261033d565b91506105028361033d565b9250827fffffffffffffffffffffffffffffffffffffffffffffffffffffffffffffffff03821115610537576105366104bd565b5b828201905092915050565b7f42616c616e636520646f6e277420656e756f6768000000000000000000000000600082015250565b6000610578601483610440565b915061058382610542565b602082019050919050565b600060208201905081810360008301526105a78161056b565b9050919050565b60006105b98261033d565b91506105c48361033d565b9250828210156105d7576105d66104bd565b5b828203905092915050565b7f546f6b656e732073656e642073756363657366756c20746f2000000000000000600082015250565b6000610618601983610440565b9150610623826105e2565b602082019050919050565b61063781610396565b82525050565b60006060820190506106526000830185610347565b81810360208301526106638161060b565b9050610672604083018461062e565b939250505056fea26469706673582212200194312817c8e93478b8902cbed1e7fdbe79e4b8fddb4b67bace15053c13b56964736f6c634300080f0033",
  "immutableReferences": {},
  "source": "//SPDX-License-Identifier: GPL-3\r\npragma solidity >= 0.7.0 < 0.9.0;\r\n\r\ncontract Coin{\r\n    address private minter ;\r\n\r\n    mapping(address => uint) balances;\r\n\r\n    event sendMessage(uint _amount, string message, address _To);\r\n\r\n    constructor() {\r\n        minter = msg.sender;\r\n    }\r\n\r\n    modifier onlyMinter(){\r\n        require(msg.sender == minter,\"only minter can mint\");\r\n        _;\r\n    }\r\n\r\n    modifier hasEnoughBalance(uint _amount) {\r\n        require(balances[msg.sender] >= _amount,\"Balance don't enuogh\");\r\n        _;\r\n    }\r\n\r\n    function mint(address _To,uint _amount) public onlyMinter{\r\n        balances[_To] += _amount;\r\n    }\r\n\r\n    function getBalance() public view returns(uint){\r\n        uint myBalance = balances[msg.sender];\r\n        return myBalance;\r\n    }\r\n\r\n    function transfer(address _To, uint _amount) public hasEnoughBalance(_amount){\r\n        balances[msg.sender] -= _amount;\r\n        balances[_To] += _amount;\r\n\r\n        emit sendMessage(_amount, \"Tokens send succesful to \", _To);\r\n    }\r\n\r\n}\r\n",
  "sourcePath": "C:\\Users\\Hadi\\Solidity\\Dapp\\Coin\\coin-contract\\contracts\\Coin.sol",
  "compiler": {
    "name": "solc",
    "version": "0.8.15+commit.e14f2714.Emscripten.clang"
  },
  "schemaVersion": "3.4.4",
  "updatedAt": "2022-07-12T07:09:19.274Z",
  "networkType": "ethereum",
  "devdoc": {
    "kind": "dev",
    "methods": {},
    "version": 1
  },
  "userdoc": {
    "kind": "user",
    "methods": {},
    "version": 1
  }
}